:100000000C94AB000C94D3000C94D3000C94D3004C
:100010000C94D3000C94D3000C94D3000C94D30014
:100020000C94D3000C94D3000C94D3000C94BE0613
:100030000C94D3000C94D3000C94D3000C94D300F4
:100040000C944A050C94D3000C94D3000C94D30068
:100050000C94D3000C94D3000C94D3000C94D300D4
:100060000C9494050C94D3000C94D3000C94D300FE
:100070000C94D3000C94D3000C94D3000C94D300B4
:100080000C94D3000C94D3000C94D3000C94D300A4
:100090000C94D3000C94D3000C94D3000C94D30094
:1000A0000C94D3000C94D3000C94D3000C94D30084
:1000B0000C94D300E900EC00DF00E3000D010D011A
:1000C000F000F400FA00FE000D01040108017F01B8
:1000D000840189019F01A601AF01B801C10100009F
:1000E0000000240027002A002D0000000000250049
:1000F00028002B002E00000000002300260029000D
:100100002C00040404040404040402020202020297
:1001100003030303030302020305050505010204AB
:100120000810204080010204081020010204081079
:1001300020408040010204080A0D0E09000302005D
:10014000000405080000000000000000000000009E
:1001500000000000280711241FBECFEFD8E0DEBF4B
:10016000CDBF11E0A0E0B1E0E0EFF6E102C0059004
:100170000D92AE32B107D9F722E0AEE2B1E001C094
:100180001D92A831B207E1F710E0CBEAD0E004C03D
:100190002197FE010E944D0BCA3AD107C9F70E9470
:1001A00095070C94760B0C94000090E0FC013297BC
:1001B000ED30F10590F5E65AFF4F0C944D0B809110
:1001C00080008F7703C0809180008F7D80938000B6
:1001D000089584B58F7702C084B58F7D84BD08955E
:1001E0008091B0008F7703C08091B0008F7D8093A5
:1001F000B0000895809190008F7703C080919000A7
:100200008F7D8093900008958091A0008F7703C028
:100210008091A0008F7D8093A0000895CF93DF93FD
:10022000282F30E0F901E85CFE4F8491F901E35E8C
:10023000FE4FD491F901EE5FFE4FC491CC2391F0B3
:1002400081110E94D500EC2FF0E0EE0FFF1FEA5065
:10025000FF4FA591B491EC91ED2381E090E021F462
:1002600080E002C080E090E0DF91CF9108951F937D
:10027000CF93DF93282F30E0F901E85CFE4F8491A3
:10028000F901E35EFE4FD491F901EE5FFE4FC49198
:10029000CC23C1F0162F81110E94D500EC2FF0E085
:1002A000EE0FFF1FE651FF4FA591B4919FB7F89451
:1002B000111104C08C91D095D82302C0EC91DE2B93
:1002C000DC939FBFDF91CF911F910895CF92DF9272
:1002D000EF92FF920F931F93CF93DF93CDB7DEB7CB
:1002E00028970FB6F894DEBF0FBECDBF88309105BA
:1002F00008F052C0FC01E959FF4F0C944D0B81E00E
:1003000090E09A8389834AC081E090E09A83898350
:1003100004C01A82198281E090E09C838B831E8244
:100320001D8218861F828E010F5F1F4F36EFE32E4E
:1003300031E0F32E6E0189E0C80ED11C32C01A8262
:10034000198281E090E09C838B8306C01A82198217
:100350001C821B8281E090E09E838D83E2CF1A8213
:1003600019821C821B8281E090E09E838D8311C0E4
:100370001A8219821C821B821E821D8281E090E0FB
:1003800008C081E090E09A8389831C821B821E82D0
:100390001D8298878F83C7CF1A8219821C821B8285
:1003A000BECFF80160810E5F1F4FF7018081F2E040
:1003B000EF0EF11C0E943701C016D10691F7809113
:1003C0000202909103028230910538F0880F991F44
:1003D000880F991F05970197F1F728960FB6F894A3
:1003E000DEBF0FBECDBFDF91CF911F910F91FF9068
:1003F000EF90DF90CF900895CF93DF9390E0FC01D2
:10040000E35EFE4F2491FC01EE5FFE4F8491882352
:1004100061F190E0880F991FFC01E252FF4FC591F6
:10042000D491FC01E651FF4FA591B491611109C02F
:100430009FB7F8948881209582238883EC912E239E
:100440000BC0623061F49FB7F8948881322F3095E9
:1004500083238883EC912E2B2C939FBF06C08FB7EC
:10046000F894E8812E2B28838FBFDF91CF910895D8
:100470003FB7F8948091E6019091E701A091E801DF
:10048000B091E90126B5A89B05C02F3F19F0019650
:10049000A11DB11D3FBFBA2FA92F982F8827820F0A
:1004A000911DA11DB11DBC01CD0142E0660F771F5A
:1004B000881F991F4A95D1F70895CF93C82F9B01A4
:1004C000A0910002B09101020E94530B28E631E096
:1004D00040E050E00E942B0BC901CC2339F037FFDC
:1004E0000EC088279927821B930B09C037FF04C0D1
:1004F00088279927821B930B919581959109909359
:100500000B0280930A020E943802609306027093E5
:1005100007028093080290930902CF9108958F9269
:100520009F92AF92BF92CF92DF92EF92FF926B01B8
:100530007C010E9438024B015C01C114D104E1042A
:10054000F104F1F00E943802DC01CB01881999090D
:10055000AA09BB09883E9340A105B10570F321E0CB
:10056000C21AD108E108F10888EE880E83E0981ECF
:10057000A11CB11CC114D104E104F10419F7DDCFB1
:10058000FF90EF90DF90CF90BF90AF909F908F90B3
:100590000895CF92DF92EF92FF920F931F93CF9324
:1005A000DF936C017A018B01C0E0D0E0CE15DF054E
:1005B00081F0D8016D918D01D601ED91FC910190F2
:1005C000F081E02DC6010995892B11F02196EECF1F
:1005D0007E01C701DF91CF911F910F91FF90EF90A6
:1005E000DF90CF90089585ED8093BC008091BC0092
:1005F00084FDFCCF1092BA010895613298F42091E5
:10060000BA01243089F460934F01282FAFE2B1E0A2
:10061000FC018E2F821B861718F481918D93F9CFE0
:1006200080E0089581E0089582E00895089581E0D2
:1006300090E03091BE012091BD01321710F480E0AE
:1006400090E091958195910908958091BE019091D6
:10065000BD01891730F48F5F8093BE0180E090E088
:1006600008958FEF9FEF08958091BD0190E0209154
:10067000BE01821B91090895CF92DF92EF92FF9203
:100680000F931F93CF93DF937C01CB018A012091BD
:100690009601222389F0EB016B01C40ED51ECC1507
:1006A000DD0569F06991D701ED91FC910190F08130
:1006B000E02DC7010995F3CF642F0E94FD02C80108
:1006C000DF91CF911F910F91FF90EF90DF90CF902E
:1006D0000895CF93DF931F92CDB7DEB76983209142
:1006E00096012223D1F02091BB01203240F021E07D
:1006F00030E0FC013383228380E090E015C08091DC
:10070000BC01E82FF0E0E956FE4F998190838F5F9E
:100710008093BC018093BB0105C061E0CE010196CE
:100720000E94FD0281E090E00F90DF91CF9108954B
:10073000CF93FC01C48121E020939601C093B701BF
:100740001092BC011092BB018385682B8AEE91E068
:100750000E9469039091BB01913208F045C08091DD
:10076000BA018111FCCF82E08093BA0181E08093CD
:10077000B9018FEF809395011092940190939301AA
:10078000A7E9B1E0E3E7F1E080E0981721F02D91CF
:1007900021938F5FFACF1092720180917201CC0F7A
:1007A000C82BC09372018091B801813061F410921E
:1007B000B801809172018093BB008091BC0083FDE1
:1007C000F8CF85EC01C085EE8093BC008091BA0122
:1007D0008230E1F3809195018F3F31F08091950156
:1007E000803211F0809195011092BC011092BB01F2
:1007F00010929601CF9108950F931F93CF938C0180
:10080000C62F0E9498036C2F6460C8010E94980351
:100810006C2F6B7FC8010E94980383EC90E00197D6
:10082000F1F7CF911F910F910895CF93C82F682FA3
:10083000607F8CE092E00E94FC0380E1C89FB001E1
:1008400011248CE092E0CF910C94FC03CF93DF93C2
:10085000CDB7DEB728970FB6F894DEBF0FBECDBF79
:1008600098E0E0E0F1E0DE01119601900D929A959A
:10087000E1F790911402961710F46FEF690FFE01E3
:100880003196E60FF11DE60FF11D9081890F80680A
:1008900028960FB6F894DEBF0FBECDBFDF91CF9183
:1008A0000C9415040F931F93CF938C01C62F607F78
:1008B00061600E94FC0380E1C89FB0011124616067
:1008C000C8010E94FC0381E090E0CF911F910F913D
:1008D00008952FB7F8948091E2019091E301A091DF
:1008E000E401B091E5012FBF8093DD019093DE011B
:1008F000A093DF01B093E00188E08093170260E0ED
:100900008CE092E00C949803009769F0FC01019050
:100910000020E9F73197AF01481B590BBC018CE06F
:1009200092E00C94C90280E090E008950C94840455
:10093000CF92DF92EF92FF920F931F93CF93DF93AB
:10094000CDB7DEB7A1970FB6F894DEBF0FBECDBF0F
:10095000282F30E040E050E019A28E010F5D1F4FBC
:100960008AE0C82ED12CE12CF12CCA01B901A701D3
:1009700096010E942B0B605DF80162938F01211597
:1009800031054105510589F7CF010E948404A196E4
:100990000FB6F894DEBF0FBECDBFDF91CF911F9190
:1009A0000F91FF90EF90DF90CF9008958091D50147
:1009B00060E08823F1F08CE00E94260480E291E060
:1009C0000E9496048091D5010E94980485E291E0EE
:1009D0000E9496048091D50190E0FC01EE0FFF1F6C
:1009E0008E0F9F1FFC01E054FE4F82810E949804ED
:1009F00007C08CE00E94260482E291E00E949604E7
:100A000061E08BE00E9426048091D50190E0FC011A
:100A1000EE0FFF1F8E0F9F1FFC01E054FE4F8081E1
:100A20008A3020F48BE291E00E9496048091D501F7
:100A300090E0FC01EE0FFF1F8E0F9F1FFC01E054A2
:100A4000FE4F80810E94980461E08EE00E9426049F
:100A50008091D50190E0FC01EE0FFF1F8E0F9F1FCC
:100A6000FC01E054FE4F81818A3020F48BE291E05A
:100A70000E9496048091D50190E0FC01EE0FFF1FCB
:100A80008E0F9F1FFC01E054FE4F81810C9498044F
:100A90000E94710B1F920F920FB60F9211242F9389
:100AA0003F938F939F93AF93BF938091E201909177
:100AB000E301A091E401B091E5013091E10123E06F
:100AC000230F2D3720F40196A11DB11D05C026E886
:100AD000230F0296A11DB11D2093E1018093E20135
:100AE0009093E301A093E401B093E5018091E601C6
:100AF0009091E701A091E801B091E9010196A11D53
:100B0000B11D8093E6019093E701A093E801B093B3
:100B1000E901BF91AF919F918F913F912F910F90DC
:100B20000FBE0F901F9018951F920F920FB60F9245
:100B300011242F933F934F935F936F937F938F93E2
:100B40009F93AF93BF93EF93FF938091B900887FFA
:100B5000803609F49CC068F5883209F45BC090F4D3
:100B6000803109F454C038F4882309F4F2C0883085
:100B700009F44DC0F2C0883109F44CC0803209F448
:100B80005DC0EBC0803409F468C048F4803309F4D8
:100B900055C0883309F0E1C080939501D4C08035F9
:100BA00009F44FC0883509F45DC0883409F0D5C018
:100BB000D2C0883909F4C3C0A8F4883709F467C0E3
:100BC00038F4883609F463C0803709F460C0C5C0C2
:100BD000883809F4B4C0803909F45FC0803809F05E
:100BE000BCC05BC0803B09F484C038F4803A09F48F
:100BF00066C0883A09F47DC0B0C0803C09F4A3C047
:100C0000883C09F4A0C0883B09F486C0A6C0809146
:100C1000720110C09091940180919301981770F522
:100C2000E091940181E08E0F80939401F0E0ED5803
:100C3000FE4F80818093BB0085EC82C0809395013C
:100C40008AC0E091940181E08E0F8093940180919D
:100C5000BB00F0E0ED58FE4F8083909194018091AD
:100C600093016AC0E091940181E08E0F809394011A
:100C70008091BB00F0E0ED58FE4F80838091B90178
:100C8000811169C081E08093B80184EA5DC083E08E
:100C90008093BA0110927101CFCF8091710180329F
:100CA00008F04DC0E091710181E08E0F80937101D9
:100CB0008091BB00F0E0EF5AFE4F8083BDCF85EC02
:100CC0008093BC001092BA0180917101803230F49F
:100CD000E0917101F0E0EF5AFE4F108260917101D6
:100CE00070E081E591E0E0E0F0E00995109271019B
:100CF00034C084E08093BA011092500110924F01E9
:100D0000E0E0F0E0099580914F01811105C081E09C
:100D100080934F0110922F01E091500181E08E0FDE
:100D200080935001F0E0E15DFE4F80818093BB0035
:100D30009091500180914F01981708F47DCF85E87C
:100D40008093BC000AC085EC8093BC001092BA016D
:100D500004C0109295010E94F302FF91EF91BF91A0
:100D6000AF919F918F917F916F915F914F913F9143
:100D70002F910F900FBE0F901F9018951F920F92FA
:100D80000FB60F9211242F933F934F935F936F935E
:100D90007F938F939F93AF93BF93CF93DF93EF9303
:100DA000FF9395B180E2892785B98091D10188238D
:100DB000E1F180912E018F5F8C3318F480932E0126
:100DC00034C010922E018091C1018F5F8C3318F4D2
:100DD0008093C1010CC01092C1018091C0018F5F4E
:100DE000883118F48093C00102C01092C001C0EC99
:100DF000D1E06D81662389F09091C0018B819813B9
:100E00000CC09091C1018C81981307C088E6689F3F
:100E1000B001112481E00E945D02239681E0CC3C68
:100E2000D80739F781E08093BF01FF91EF91DF91FF
:100E3000CF91BF91AF919F918F917F916F915F9172
:100E40004F913F912F910F900FBE0F901F901895CB
:100E5000CF93DF931092ED011092EC0188EE93E0B6
:100E6000A0E0B0E08093EE019093EF01A093F00139
:100E7000B093F1018CE091E09093EB018093EA0153
:100E800010920F0210920E028CE191E090930D02ED
:100E900080930C0287E28093100284E18093150214
:100EA00084E0809316021092170288E090E09093FD
:100EB000F7018093F60189E090E09093F901809327
:100EC000F8018AE090E09093FB018093FA018BE0B7
:100ED00090E09093FD018093FC011092FF0110922D
:100EE000FE0180E090E1909301028093000284E88B
:100EF00093E090930302809302028FEF9FEF909311
:100F000005028093040210920B0210920A02C6EFAF
:100F1000D1E08881229661E00E94FC0181E0CE3F11
:100F2000D807B9F7DF91CF910895789484B582609E
:100F300084BD84B5816084BD85B5826085BD85B57D
:100F4000816085BD80916E00816080936E001092FB
:100F50008100809181008260809381008091810076
:100F60008160809381008091800081608093800007
:100F70008091B10084608093B1008091B000816065
:100F80008093B00080919100826080939100809165
:100F900091008160809391008091900081608093A6
:100FA00090008091A10082608093A1008091A100B7
:100FB00081608093A1008091A00081608093A00057
:100FC00080917A00846080937A0080917A008260B8
:100FD00080937A0080917A00816080937A0080917A
:100FE0007A00806880937A001092C10060E084E00B
:100FF0000E94FC0160E085E00E94FC0160E086E068
:101000000E94FC0160E087E00E94FC01259AF894B0
:1010100010928000809181008F7E8093810080916A
:10102000810088608093810080918100846080933A
:101030008100809181008D7F80938100809181006B
:101040008E7F8093810010928500109284008FEF34
:1010500099EF909389008093880082E080936F00DD
:1010600078941092BE011092BD011092BC011092B2
:10107000BB011092BA0181E08093B9011092B801CE
:1010800061E082E10E94370161E083E10E94370163
:101090008091B9008E7F8093B9008091B9008D7FD7
:1010A0008093B90088E48093B80085E48093BC0005
:1010B0001092110280911602823018F098E09093FD
:1010C00011028093140262E370E080E090E00E94DD
:1010D0008F02609117028CE092E00E94980368EE04
:1010E00073E080E090E00E948F0260E38CE092E089
:1010F0000E94FC030BE416E4C8010197F1F760E3DA
:101100008CE092E00E94FC03C8010197F1F760E3D4
:101110008CE092E00E94FC0383E592E00197F1F7F6
:1011200060E28CE092E00E94FC03809111028062F8
:101130000E94150484E0809312028CE00E94150442
:1011400081E00E9415040BE31FE1C8010197F1F74C
:1011500082E08093130286E00E94150482E00E94E0
:101160001504C8010197F1F788E08093170260E049
:101170008CE092E00E9498032FB7F8948091E201EE
:101180009091E301A091E401B091E5012FBF80931C
:10119000DD019093DE01A093DF01B093E00161E0F7
:1011A0008BE00E94260487E291E00E949604A091C1
:1011B0000002B09101022CE030E00E946A0B9B011A
:1011C000AC0160E077E883E993E00E942B0B309359
:1011D00003022093020200E010E077E0E72EF12CFA
:1011E0002FB7F8948091E2019091E301A091E4017E
:1011F000B091E5012FBF4091DD015091DE0160917A
:10120000DF017091E001841B950BA60BB70B8939A8
:101210009A43A105B10538F01092170260E08CE006
:1012200092E00E9498030E943802809006029090FB
:101230000702A0900802B0900902AB01BC01481956
:1012400059096A097B098091020290910302092ED3
:10125000000CAA0BBB0B481759076A077B0708F459
:101260007AC080910A0290910B02181619069CF51B
:1012700080910402909105020196883091052CF42A
:10128000909305028093040204C01092050210920C
:10129000040280910402909105020E9466018091EF
:1012A000FE019091FF0101969093FF018093FE0152
:1012B00020910002309101028217930734F0821BC3
:1012C000930B9093FF018093FE0180910A0290910D
:1012D0000B02019732C0892BA1F1809104029091F9
:1012E0000502019797FD05C09093050280930402C3
:1012F00004C0F0920502E0920402809104029091F1
:1013000005020E9466018091FE019091FF01019704
:101310009093FF018093FE0197FF0AC02091000285
:1013200030910102820F931F9093FF018093FE0181
:1013300080910A0290910B02019690930B02809388
:101340000A020E943802609306027093070280939B
:1013500008029093090280910A0290910B02892B56
:1013600081F460E088E00E94370160E089E00E943B
:10137000370160E08AE00E94370160E08BE00E9464
:1013800037019091D5018091D70191110DC0811144
:101390001CC08091D60181111DC08091D4018111A2
:1013A00019C061E08DE022C081110FC08091D6018B
:1013B000811110C08091D40181110CC08091120262
:1013C0008E7F8093120288601AC0882319F061E032
:1013D0008CE00CC08091D601882311F061E005C03B
:1013E0008091D401882321F060E08FE00E942604E0
:1013F00080911202982F91609093120289600E944E
:10140000150484E00E940E01C82F8093DC018091B6
:10141000DB01C81739F0C11105C068E670E081E052
:101420000E945D02C093DB0185E00E940E01C82F7F
:101430008093DA018091D901C81791F1C11130C0B0
:101440000E9469048091D801882301F18091D7011D
:10145000882331F01092D70181E08093D60120C01B
:101460008091D601882351F08091D501882331F0F5
:101470001092D60181E08093D40112C081E0809364
:10148000D7011092D6011092D4010AC08091D501E3
:10149000843010F4C1E0C80FC093D5010E94D60477
:1014A0008091DA018093D90187E00E940E01C82F54
:1014B0008093D3018091D201C817D9F0C11119C00E
:1014C0000E9469048091D80191E089278093D80116
:1014D000882319F09093D7010CC01092D701109275
:1014E000D6011092D4018091D501811102C0909350
:1014F000D101C093D20186E00E940E01C82F8093D3
:10150000D0018091CF01C81709F43FC08091D70165
:10151000811109C08091D60181116BC08091D401E5
:10152000811146C032C0C11130C00E94690480914F
:10153000D50190E0FC01EE0FFF1FDF01A80FB91FDE
:10154000A054BE4F2C91273110F4C1E0C20F8E0F72
:101550009F1FFC01E054FE4FC08361E08BE00E94BE
:101560002604CA3020F48BE291E00E949604809118
:10157000D50190E0FC01EE0FFF1F8E0F9F1FFC01B5
:10158000E054FE4F80810E9498048091D0018093A6
:10159000CF018091BF01882321F00E94D6041092D0
:1015A000BF010115110509F41BCE0E94000018CEE1
:1015B000C111EBCF0E9469048091D50190E0FC013C
:1015C000EE0FFF1FDF01A80FB91FA054BE4F1296E8
:1015D0002C91223010F4C1E0C20F8E0F9F1FFC012E
:1015E000E054FE4FC28360E08FE00E9426048C2FFF
:1015F000CACFC111CACF0E9469048091D50190E081
:10160000FC01EE0FFF1FDF01A80FB91FA054BE4F52
:1016100011962C912B3310F4C1E0C20F8E0F9F1F37
:10162000FC01E054FE4FC18361E08EE00E9426047D
:10163000CA3020F48BE291E00E9496048091D5019B
:1016400090E0FC01EE0FFF1F8E0F9F1FFC01E05486
:10165000FE4F818198CFA1E21A2EAA1BBB1BFD0170
:101660000DC0AA1FBB1FEE1FFF1FA217B307E40781
:10167000F50720F0A21BB30BE40BF50B661F771FD9
:10168000881F991F1A9469F76095709580959095B9
:101690009B01AC01BD01CF010895EE0FFF1F059026
:1016A000F491E02D09940E945B0B332312F48A1B02
:1016B0009B0B0C946C0BA29FB001B39FC001A39F26
:1016C000700D811D1124911DB29F700D811D11247B
:1016D000911D08950E945B0BB7FF0895821B930B29
:1016E000089581E090E0F8940C94760BF894FFCF85
:1016F00000004000140054000000000069033C0397
:101700003403250317031603000000005204C90226
:0E1710004600202020200030303A303000000B
:00000001FF
