:100000000C9470000C9498000C9498000C94980038
:100010000C9498000C9498000C9498000C94980000
:100020000C9498000C9498000C9498000C94640321
:100030000C9498000C9498000C9498000C949800E0
:100040000C94EF090C9498000C9498000C94980070
:100050000C9498000C9498000C9498000C949800C0
:100060000C944E050C9498004D08600865086C08C7
:1000700073087C0885088E08000000090003020050
:10008000000405080000000000000000000000015E
:10009000020408102040800102040810200102041C
:1000A00008102040804004040404040404040202F4
:1000B000020202020303030303030202030000001F
:1000C0000023002600290000000000250028002B46
:1000D0000000000000240027002A0000D303AD0424
:1000E00011241FBECFEFD8E0DEBFCDBF11E0A0E0EE
:1000F000B1E0E4EEF7E102C005900D92A033B10744
:10010000D9F722E0A0E3B1E001C01D92AE33B207FF
:10011000E1F710E0C0E7D0E004C02197FE010E94A3
:10012000CC0BCE36D107C9F70E94E0090C94F00B36
:100130000C9400000E94390A609365017093660177
:10014000809367019093680189E691E00C94A3067F
:10015000909137018091350191110DC0811119C025
:100160008091340181111AC080913301811116C030
:1001700041E06DE01FC081110CC0809134018111FC
:100180000DC080913301811109C089E691E00C9482
:100190002D07882319F041E06CE00CC080913401F8
:1001A000882311F041E005C080913301882331F0AC
:1001B00040E06FE089E691E00E94F70689E691E071
:1001C0000C94340741E06BE089E691E00E94F70669
:1001D0006AE071E089E691E00C94800960E084E0D7
:1001E0000E94150B60E085E00E94150B60E086E040
:1001F0000E94150B60E087E00E94150B259AF89489
:1002000010928000E1E8F0E080818F7E8083808121
:100210008860808380818460808380818D7F8083FB
:1002200080818E7F808310928500109284008FEFF2
:1002300099EF909389008093880082E080936F000B
:10024000789489E691E00E94A60789E691E00E94F1
:10025000A3060E94390A609365017093660180933A
:100260006701909368010E94E2006CE070E08FE407
:1002700091E00C9427088091370140E06CE08823DE
:1002800059F189E691E00E94F70660E171E089E6A4
:1002900091E00E9480094AE050E06091370189E6D0
:1002A00091E00E94D80965E171E089E691E00E9441
:1002B00080098091370190E0FC01EE0FFF1F8E0F47
:1002C0009F1FFC01E85CFE4F4AE050E0628189E636
:1002D00091E00E94D8090AC089E691E00E94F706E1
:1002E00062E171E089E691E00E94800941E06BE003
:1002F00089E691E00E94F7068091370190E0FC01C9
:10030000EE0FFF1F8E0F9F1FFC01E85CFE4F8081E8
:100310008A3030F46EE071E089E691E00E94800955
:100320008091370190E0FC01EE0FFF1F8E0F9F1FA1
:10033000FC01E85CFE4F4AE050E0608189E691E014
:100340000E94D80941E06EE089E691E00E94F7063C
:100350008091370190E0FC01EE0FFF1F8E0F9F1F71
:10036000FC01E85CFE4F81818A3030F46EE071E080
:1003700089E691E00E9480098091370190E0FC01BC
:10038000EE0FFF1F8E0F9F1FFC01E85CFE4F4AE03F
:1003900050E0618189E691E00C94D8090F931F9396
:1003A000CF930E94390A0091650110916601209156
:1003B000670130916801DC01CB01801B910BA20B1E
:1003C000B30B89399A43A105B10520F089E691E084
:1003D0000E949E068FE491E00E94040980916301CF
:1003E00090916401892B81F460E088E00E94510BB8
:1003F00060E089E00E94510B60E08AE00E94510BAE
:1004000060E08BE00E94510B0E94A80084E00E94F3
:10041000800B80934E0190914D01891759F0811105
:1004200009C04091000150E0609101018FE491E02A
:100430000E94F20780914E0180934D0185E00E9459
:10044000800BC82F80934C0180914B01C81791F10C
:10045000C11130C00E949A0080913601882301F1B9
:1004600080913501882331F01092350181E080932D
:10047000340120C080913401882351F080913701EC
:10048000882331F01092340181E08093330112C04F
:1004900081E08093350110923401109233010AC03B
:1004A00080913701843010F4C1E0C80FC093370148
:1004B0000E943B0180914C0180934B0187E00E9498
:1004C000800B80934801909147018917D9F08111E1
:1004D00019C00E949A008091360191E0892780938B
:1004E0003601882319F0909335010CC01092350124
:1004F000109234011092330180913701811102C0B2
:1005000090933201809148018093470186E00E94D8
:10051000800BC82F80934A0180914901C81709F4C4
:10052000C3C080913501811109C0809134018111CE
:1005300005C080913301882309F4B6C0C111B4C04D
:100540000E949A0090913501809137019923E9F139
:1005500090E0FC01EE0FFF1FDF01A80FB91FA85CA0
:10056000BE4F2C91273110F4C1E0C20F8E0F9F1F98
:10057000FC01E85CFE4FC08341E06BE089E691E05E
:100580000E94F7068091370190E0FC01EE0FFF1FFB
:100590008E0F9F1FFC01E85CFE4F80818A3030F493
:1005A0006EE071E089E691E00E9480098091370158
:1005B00090E0FC01EE0FFF1F8E0F9F1FFC01E85C17
:1005C000FE4F4AE050E060816BC090913401992366
:1005D000F1F190E0FC01EE0FFF1FDF01A80FB91F42
:1005E000A85CBE4F11962C912B3310F4C1E0C20FC2
:1005F0008E0F9F1FFC01E85CFE4FC18341E06EE05F
:1006000089E691E00E94F7068091370190E0FC01B5
:10061000EE0FFF1F8E0F9F1FFC01E85CFE4F8181D4
:100620008A3030F46EE071E089E691E00E94800942
:100630008091370190E0FC01EE0FFF1F8E0F9F1F8E
:10064000FC01E85CFE4F4AE050E0618129C090E087
:10065000FC01EE0FFF1FDF01A80FB91FA85CBE4F02
:1006600012962C91223010F4C1E0C20F8E0F9F1F02
:10067000FC01E85CFE4FC28340E06FE089E691E058
:100680000E94F7068091370190E0FC01EE0FFF1FFA
:100690008E0F9F1FFC01E85CFE4F4AE050E0628134
:1006A00089E691E00E94D80980914A01809349012E
:1006B00080913001882321F00E943B01109230018B
:1006C000CF911F910F9108951F920F920FB60F9225
:1006D00011242F933F934F935F936F937F938F9347
:1006E0009F93AF93BF93CF93DF93EF93FF9395B116
:1006F00080E2892785B980913201882309F440C0BE
:10070000809131018F5F8C3318F48093310138C0B0
:1007100010923101809139018F5F8C3318F48093EE
:1007200039010CC010923901809138018F5F8831F6
:1007300018F48093380102C010923801C8E3D1E068
:100740004D814423A9F0909138018B81981310C0FA
:10075000909139018C8198130BC080910001849F86
:10076000A0011124609101018FE491E00E94F20741
:10077000239681E0C434D80719F781E080933001D3
:10078000FF91EF91DF91CF91BF91AF919F918F91A9
:100790007F916F915F914F913F912F910F900FBE7D
:1007A0000F901F9018950F931F9324E044E167E288
:1007B00089E691E00E947B060BE010E02AE030E041
:1007C00049E050E068E070E08FE491E00E94A80703
:1007D0001F910F9108958091A50190E02091A601AD
:1007E000821B910908959091A6018091A501981707
:1007F00050F4E92FF0E0E955FE4F208130E09F5F93
:100800009093A60102C02FEF3FEFC9010895E09138
:10081000A6018091A501E81730F4F0E0E955FE4FFC
:10082000808190E008958FEF9FEF08950895CF9213
:10083000DF92EF92FF920F931F93CF93DF937C0190
:10084000CB018A0120918101222389F0EB016B0108
:10085000C40ED51ECC15DD0569F06991D701ED9167
:10086000FC910190F081E02DC7010995F3CF642F31
:100870000E942505C801DF91CF911F910F91FF9034
:10088000EF90DF90CF900895CF93DF931F92CDB775
:10089000DEB76983209181012223D1F0209182016A
:1008A000203240F021E030E0FC013383228380E0FD
:1008B00090E015C080918301E82FF0E0EC57FE4FE7
:1008C000998190838F5F809383018093820105C01B
:1008D00061E0CE0101960E94250581E090E00F9035
:1008E000DF91CF910895FC011382128288EE93E08C
:1008F000A0E0B0E084839583A683B7838BE191E089
:100900009183808308951092A6011092A501109200
:100910008301109282010C94B10481E080938101E3
:100920006093A401109283011092820108950F93A5
:10093000062F21E04091820164E871E08091A401DA
:100940000E94CF04109283011092820110928101C3
:100950000F91089561E00C94970485E791E00C9461
:1009600073041092340281E08093320210923102BB
:1009700061E082E10E94510B61E083E10E94510B32
:10098000E9EBF0E080818E7F808380818D7F8083A2
:1009900088E48093B80085E48093BC0008950F93A9
:1009A000413208F04AC0909134029111FCCF32E0FC
:1009B00030933402009332023FEF3093C70110921C
:1009C0000C0240930B02562FADE0B2E0FB013E2F2C
:1009D000351B341718F431913D93F9CF109233023F
:1009E00030913302880F832B809333028091310240
:1009F000813061F410923102809133028093BB0008
:100A00008091BC0083FDF8CF85EC01C085EE80931A
:100A1000BC00222321F0809134028230D1F38091F6
:100A2000C7018F3F79F08091C701803241F08091FA
:100A3000C701803331F094E005C091E003C092E03B
:100A400001C093E0892F0F910895613298F42091AD
:100A50003402243089F46093E901282FABEEB1E031
:100A6000FC018E2F821B861718F481918D93F9CF8C
:100A700080E0089581E0089582E0089585ED8093F7
:100A8000BC008091BC0084FDFCCF1092340208951C
:100A900085EC8093BC001092340208951F920F924F
:100AA0000FB60F9211242F933F934F935F936F9341
:100AB0007F938F939F93AF93BF93EF93FF93809117
:100AC000B900887F803609F49EC078F5883209F431
:100AD0005DC090F4803109F456C038F4882309F4DD
:100AE000F5C0883009F44FC0F5C0883109F44EC014
:100AF000803209F45FC0EEC0803409F46AC058F453
:100B0000803309F457C0883309F0E4C08093C701EB
:100B10000E944805DFC0803509F44FC0883509F4CC
:100B20005DC0883409F0D6C0D3C0883909F4C4C088
:100B3000A8F4883709F467C038F4883609F463C02C
:100B4000803709F460C0C6C0883809F4B5C0803960
:100B500009F45FC0803809F0BDC05BC0803B09F478
:100B600083C038F4803A09F466C0883A09F47CC03E
:100B7000B1C0803C09F4A4C0883C09F4A1C0883B02
:100B800009F487C0A7C08091330210C090910C0275
:100B900080910B02981770F5E0910C0281E08E0FA6
:100BA00080930C02F0E0E35FFD4F80818093BB00F7
:100BB00085EC83C08093C7018BC0E0910C0281E07B
:100BC0008E0F80930C028091BB00F0E0E35FFD4F3D
:100BD000808390910C0280910B026BC0E0910C021B
:100BE00081E08E0F80930C028091BB00F0E0E35F08
:100BF000FD4F80838091320281116AC081E0809331
:100C0000310284EA5EC083E0809334021092C8010E
:100C1000CFCF8091C801803208F04EC0E091C8016A
:100C200081E08E0F8093C8018091BB00F0E0E75314
:100C3000FE4F8083BDCF0E9448058091C80180325D
:100C400030F4E091C801F0E0E753FE4F108260916C
:100C5000C80170E0E0912D02F0912E0289EC91E044
:100C600009951092C80136C084E080933402109236
:100C7000EA011092E901E0912F02F091300209950A
:100C80008091E901811105C081E08093E901109212
:100C9000EB01E091EA0181E08E0F8093EA01F0E040
:100CA000E551FE4F80818093BB009091EA018091D5
:100CB000E901981708F47CCF85E88093BC000AC04E
:100CC00085EC8093BC001092340204C01092C701DE
:100CD0000E943E05FF91EF91BF91AF919F918F913F
:100CE0007F916F915F914F913F912F910F900FBE28
:100CF0000F901F901895FC01138212828BE291E0F5
:100D000091838083648341872287138608951F938C
:100D1000CF93DF93EC01162F6C8185E791E00E9461
:100D20008D046B85612B85E791E00E94440485E783
:100D300091E0DF91CF911F910C94AA04FC011386DE
:100D400060E00C94870628E0FC01238760E00C94A7
:100D500087060F931F93CF938C01C62F64600E9468
:100D6000870681E090E00E94A60A6C2F6B7FC80185
:100D70000E94870682E390E0CF911F910F910C941F
:100D8000A60A1F93CF93DF93EC01162F0E948706CC
:100D9000612FCE01DF91CF911F910C94A9060F9383
:100DA0001F93CF93DF938C01C62FD42F607F642BCA
:100DB0000E94C10680E1C89FB00111246D2BC801BB
:100DC000DF91CF911F910F910C94C10640E00C94DC
:100DD000CF0661E00E94E60680ED97E00C94A60A3B
:100DE00062E00E94E60680ED97E00C94A60ACF939D
:100DF000DF93CDB7DEB728970FB6F894DEBF0FBEEE
:100E0000CDBF9C0188E0E2E0F1E0DE0111960190A7
:100E10000D928A95E1F7F9018085841710F44FEF60
:100E2000480FFE013196E40FF11DE40FF11D908192
:100E3000690F6068C90128960FB6F894DEBF0FBE2F
:100E4000CDBFDF91CF910C94E606FC016681262F81
:100E5000246026836C600C94E606FC0166816E7F3C
:100E6000668368600C94E606FC016681262F21608B
:100E7000268369600C94E60641E00E94CF0681E07B
:100E800090E00895CF93DF93EC01423018F08D810C
:100E900088608D834887222329F0413019F48D81A1
:100EA00084608D8362E370E080E090E00E946A0AD3
:100EB0006B85CE010E94870668EE73E080E090E0CB
:100EC0000E946A0A60E3CE010E94C10684E991E1B2
:100ED0000E94A60A60E3CE010E94C10684E991E166
:100EE0000E94A60A60E3CE010E94C10686E990E056
:100EF0000E94A60A60E2CE010E94C1066D81606276
:100F0000CE010E94E60684E08E83CE010E94250772
:100F1000CE010E94E90682E08F8366E0CE010E9446
:100F2000E606CE01DF91CF910C94F006CF93DF93CC
:100F3000EC0185E791E00E9483041D8220E04A8550
:100F40006985CE01DF91CF910C9442070C949607EE
:100F50000F931F93CF93DF93FC01718360835383BF
:100F6000428335832483178306831186108680E0AD
:100F700090E19387828784E893E0958784878FEF59
:100F80009FEF97878687158A148AEF018F01085F84
:100F90001F4F8881229661E00E94150BC017D10770
:100FA000C1F7DF91CF911F910F910895CF93DF93F8
:100FB000EC01CA01662319F057FF09C005C057FFAD
:100FC00003C09195819591099195819591099D8B8A
:100FD0008C8B0E94450A688B798B8A8B9B8BDF9167
:100FE000CF9108951F93CF93DF93EC01162F9A01B1
:100FF000AA85BB850E94D20B28E631E040E050E094
:101000000E94AA0BA901612FCE01DF91CF911F9100
:101010000C94D6076630710524F4FC01848595850F
:1010200008956831710584F4FC0122853385DB0164
:101030000E94D20B9B01AC0160E077E883E993E06A
:101040000E94AA0BC901089588E592E00895CF9304
:10105000DF93EC010E940A089D878C87DF91CF9176
:101060000895AF92BF92CF92DF92EF92FF920F93CB
:101070001F93CF93DF93CDB7DEB728970FB6F894C1
:10108000DEBF0FBECDBF6C016830710508F051C0E6
:10109000FB01EC5CFF4F0C94CC0B81E090E09A8359
:1010A00089831C821B821E821D8218861F828E01EC
:1010B0000F5F1F4F76015E0189E0A80EB11C3CC096
:1010C00081E090E09A83898304C01A82198281E0CA
:1010D00090E09C838B83E7CF1A82198281E090E0B5
:1010E0009C838B8306C01A8219821C821B8281E03A
:1010F00090E09E838D83D9CF1A8219821C821B8235
:1011000081E090E09E838D8311C01A8219821C8237
:101110001B821E821D8281E090E008C081E090E089
:101120009A8389831C821B821E821D8298878F83EB
:10113000BECF1A821982B5CFF80160810E5F1F4FB2
:10114000F7018081F2E0EF0EF11C0E94510BA01616
:10115000B10691F7F6018485958528960FB6F89427
:10116000DEBF0FBECDBFDF91CF911F910F91FF90DA
:10117000EF90DF90CF90BF90AF900C94A60ACF93E2
:10118000DF93EC018E859F850196883091051CF4D4
:101190009F878E8702C01F861E866E857F85CE0143
:1011A0000E943108888599850196998788872A85C4
:1011B0003B858217930724F0821B930B99878887BE
:1011C000DF91CF910895CF93DF93EC018E859F85BA
:1011D000019797FF02C087E090E09F878E876E851A
:1011E0007F85CE010E94310888859985019799876E
:1011F000888797FF06C02A853B85820F931F9987B2
:101200008887DF91CF9108950F931F93CF93DF933A
:10121000EC010E94450A088919892A893B89AB019A
:10122000BC01401B510B620B730B8C859D85092EF5
:10123000000CAA0BBB0B481759076A077B07E0F0A5
:101240008C899D89181619063CF4CE010E94BF08AE
:101250008C899D89019708C0892B41F0CE010E949D
:10126000E3088C899D8901969D8B8C8B0E94450A91
:10127000688B798B8A8B9B8BDF91CF911F910F911C
:101280000895CF92DF92EF92FF920F931F93CF9327
:10129000DF936C017A018B01C0E0D0E0CE15DF0551
:1012A00081F0D8016D918D01D601ED91FC910190F5
:1012B000F081E02DC6010995892B11F02196EECF22
:1012C0007E01C701DF91CF911F910F91FF90EF90A9
:1012D000DF90CF9008956115710579F0FB010190C1
:1012E0000020E9F73197AF01461B570BDC01ED9168
:1012F000FC910280F381E02D099480E090E0089554
:101300000C946B098F929F92AF92BF92EF92FF92D3
:101310000F931F93CF93DF93CDB7DEB7A1970FB68F
:10132000F894DEBF0FBECDBF7C01FA01CB0119A23C
:10133000223008F42AE08E010F5D1F4F822E912C7F
:10134000A12CB12CBF01A50194010E94AA0BF901A7
:10135000CA01015011096A3014F4605D01C0695C72
:10136000D8016C93232B242B252B61F7B801C701DF
:101370000E946B09A1960FB6F894DEBF0FBECDBFD9
:10138000DF91CF911F910F91FF90EF90BF90AF90A1
:101390009F908F9008952115310541F4DC01ED9166
:1013A000FC910190F081E02D642F09940C94820946
:1013B0009A01462F50E060E070E00C94CB0908954C
:1013C0000E94B10A0E94DF090E94EE00C0E0D0E056
:1013D0000E94CE012097E1F30E940000F9CF1F92F6
:1013E0000F920FB60F9211242F933F938F939F93D9
:1013F000AF93BF938091360290913702A09138024B
:10140000B09139023091350223E0230F2D3720F4BB
:101410000196A11DB11D05C026E8230F0296A11D4E
:10142000B11D209335028093360290933702A0932A
:101430003802B093390280913A0290913B02A09118
:101440003C02B0913D020196A11DB11D80933A026C
:1014500090933B02A0933C02B0933D02BF91AF91A9
:101460009F918F913F912F910F900FBE0F901F90E2
:1014700018952FB7F89460913602709137028091D9
:101480003802909139022FBF08953FB7F8948091A8
:101490003A0290913B02A0913C02B0913D0226B5E8
:1014A000A89B05C02F3F19F00196A11DB11D3FBF9C
:1014B000BA2FA92F982F8827820F911DA11DB11D2A
:1014C000BC01CD0142E0660F771F881F991F4A9526
:1014D000D1F708958F929F92AF92BF92CF92DF92F1
:1014E000EF92FF926B017C010E94450A4B015C0167
:1014F000C114D104E104F10401F10E94A90B0E947E
:10150000450ADC01CB0188199909AA09BB09883E63
:101510009340A105B10560F321E0C21AD108E108AA
:10152000F10888EE880E83E0981EA11CB11CC1143E
:10153000D104E104F10419F7DBCFFF90EF90DF90C5
:10154000CF90BF90AF909F908F900895823091057B
:1015500038F0880F991F880F991F05970197F1F7A9
:101560000895789484B5826084BD84B5816084BD1B
:1015700085B5826085BD85B5816085BDEEE6F0E00C
:10158000808181608083E1E8F0E010828081826068
:101590008083808181608083E0E8F0E080818160E9
:1015A0008083E1EBF0E0808184608083E0EBF0E019
:1015B000808181608083EAE7F0E0808184608083BD
:1015C0008081826080838081816080838081806867
:1015D00080831092C1000895843081F028F4823015
:1015E00099F08330A1F008958830A9F08930B9F0DE
:1015F0008530D1F4809180008F7D03C08091800080
:101600008F7780938000089584B58F7702C084B56A
:101610008F7D84BD08958091B0008F7703C0809145
:10162000B0008F7D8093B0000895CF93DF9390E05A
:10163000FC01E157FF4F2491FC01EA55FF4F8491D3
:10164000882361F190E0880F991FFC01EF52FF4F52
:10165000C591D491FC01E953FF4FA591B49161115B
:1016600009C09FB7F8948881209582238883EC91E4
:101670002E230BC0623061F49FB7F8948881322F1B
:10168000309583238883EC912E2B2C939FBF06C02B
:101690008FB7F894E8812E2B28838FBFDF91CF91ED
:1016A00008951F93CF93DF93282F30E0F901E85876
:1016B000FF4F8491F901E157FF4FD491F901EA55A9
:1016C000FF4FC491CC23C1F0162F81110E94EC0A68
:1016D000EC2FF0E0EE0FFF1FE953FF4FA591B491FF
:1016E0009FB7F894111104C08C91D095D82302C0F3
:1016F000EC91DE2BDC939FBFDF91CF911F9108957A
:10170000CF93DF93282F30E0F901E858FF4F849101
:10171000F901E157FF4FD491F901EA55FF4FC49108
:10172000CC2391F081110E94EC0AEC2FF0E0EE0F37
:10173000FF1FE354FF4FA591B491EC91ED2381E09D
:1017400090E021F480E002C080E090E0DF91CF9152
:1017500008950895A1E21A2EAA1BBB1BFD010DC01E
:10176000AA1FBB1FEE1FFF1FA217B307E407F50751
:1017700020F0A21BB30BE40BF50B661F771F881F2D
:10178000991F1A9469F760957095809590959B01C3
:10179000AC01BD01CF010895EE0FFF1F0590F4913C
:1017A000E02D09940E94DA0B332312F48A1B9B0B61
:1017B0000C94EB0BA29FB001B39FC001A39F700DCF
:1017C000811D1124911DB29F700D811D1124911D49
:1017D00008950E94DA0BB7FF0895821B930B0895BA
:0417E000F894FFCFAB
:1017E4006801000040001400540030303A303000EA
:1017F400460020202020000000000044041704EBD1
:1018040003F30307041604000000003C0741090029
:00000001FF
